{
  "contractName": "SupplyChain",
  "abi": [
    {
      "constant": true,
      "inputs": [
        {
          "name": "",
          "type": "uint256"
        }
      ],
      "name": "chain",
      "outputs": [
        {
          "name": "addr",
          "type": "address"
        },
        {
          "name": "nodeId",
          "type": "uint256"
        }
      ],
      "payable": false,
      "stateMutability": "view",
      "type": "function"
    },
    {
      "inputs": [],
      "payable": true,
      "stateMutability": "payable",
      "type": "constructor"
    },
    {
      "constant": false,
      "inputs": [
        {
          "components": [
            {
              "name": "addr",
              "type": "address"
            },
            {
              "name": "nodeId",
              "type": "uint256"
            },
            {
              "components": [
                {
                  "name": "itemType",
                  "type": "string"
                },
                {
                  "name": "itemId",
                  "type": "uint256"
                },
                {
                  "name": "puf",
                  "type": "uint256[2]"
                }
              ],
              "name": "inventory",
              "type": "tuple[]"
            }
          ],
          "name": "a",
          "type": "tuple"
        }
      ],
      "name": "isSelfOrAdmin",
      "outputs": [
        {
          "name": "",
          "type": "bool"
        }
      ],
      "payable": false,
      "stateMutability": "nonpayable",
      "type": "function"
    },
    {
      "constant": false,
      "inputs": [
        {
          "name": "a",
          "type": "address"
        },
        {
          "name": "id",
          "type": "uint256"
        }
      ],
      "name": "register",
      "outputs": [],
      "payable": true,
      "stateMutability": "payable",
      "type": "function"
    },
    {
      "constant": false,
      "inputs": [
        {
          "name": "i",
          "type": "string"
        },
        {
          "name": "id",
          "type": "uint256"
        },
        {
          "name": "p",
          "type": "uint256[2]"
        }
      ],
      "name": "createItem",
      "outputs": [],
      "payable": true,
      "stateMutability": "payable",
      "type": "function"
    },
    {
      "constant": false,
      "inputs": [
        {
          "name": "a",
          "type": "uint256"
        },
        {
          "components": [
            {
              "name": "addr",
              "type": "address"
            },
            {
              "name": "nodeId",
              "type": "uint256"
            },
            {
              "components": [
                {
                  "name": "itemType",
                  "type": "string"
                },
                {
                  "name": "itemId",
                  "type": "uint256"
                },
                {
                  "name": "puf",
                  "type": "uint256[2]"
                }
              ],
              "name": "inventory",
              "type": "tuple[]"
            }
          ],
          "name": "s",
          "type": "tuple"
        }
      ],
      "name": "getInventory",
      "outputs": [
        {
          "components": [
            {
              "name": "itemType",
              "type": "string"
            },
            {
              "name": "itemId",
              "type": "uint256"
            },
            {
              "name": "puf",
              "type": "uint256[2]"
            }
          ],
          "name": "",
          "type": "tuple"
        }
      ],
      "payable": false,
      "stateMutability": "nonpayable",
      "type": "function"
    },
    {
      "constant": false,
      "inputs": [
        {
          "components": [
            {
              "name": "itemType",
              "type": "string"
            },
            {
              "name": "itemId",
              "type": "uint256"
            },
            {
              "name": "puf",
              "type": "uint256[2]"
            }
          ],
          "name": "a",
          "type": "tuple"
        },
        {
          "components": [
            {
              "name": "addr",
              "type": "address"
            },
            {
              "name": "nodeId",
              "type": "uint256"
            },
            {
              "components": [
                {
                  "name": "itemType",
                  "type": "string"
                },
                {
                  "name": "itemId",
                  "type": "uint256"
                },
                {
                  "name": "puf",
                  "type": "uint256[2]"
                }
              ],
              "name": "inventory",
              "type": "tuple[]"
            }
          ],
          "name": "s",
          "type": "tuple"
        }
      ],
      "name": "addItem",
      "outputs": [],
      "payable": true,
      "stateMutability": "payable",
      "type": "function"
    },
    {
      "constant": false,
      "inputs": [
        {
          "components": [
            {
              "name": "itemType",
              "type": "string"
            },
            {
              "name": "itemId",
              "type": "uint256"
            },
            {
              "name": "puf",
              "type": "uint256[2]"
            }
          ],
          "name": "a",
          "type": "tuple"
        }
      ],
      "name": "removeItem",
      "outputs": [],
      "payable": true,
      "stateMutability": "payable",
      "type": "function"
    },
    {
      "constant": false,
      "inputs": [
        {
          "name": "Iid",
          "type": "uint256"
        },
        {
          "components": [
            {
              "name": "addr",
              "type": "address"
            },
            {
              "name": "nodeId",
              "type": "uint256"
            },
            {
              "components": [
                {
                  "name": "itemType",
                  "type": "string"
                },
                {
                  "name": "itemId",
                  "type": "uint256"
                },
                {
                  "name": "puf",
                  "type": "uint256[2]"
                }
              ],
              "name": "inventory",
              "type": "tuple[]"
            }
          ],
          "name": "s",
          "type": "tuple"
        }
      ],
      "name": "passItem",
      "outputs": [],
      "payable": true,
      "stateMutability": "payable",
      "type": "function"
    }
  ],
  "bytecode": "0x606060405233600260006101000a81548173ffffffffffffffffffffffffffffffffffffffff021916908373ffffffffffffffffffffffffffffffffffffffff160217905550611c1c806100546000396000f30060606040526004361061008e576000357c0100000000000000000000000000000000000000000000000000000000900463ffffffff16806338047f46146100935780635852cc0c146100aa5780636d705ebb146100e157806371586a60146100f8578063a2a1ccf01461010f578063ca295a0514610145578063d0b165a01461017b578063f029137f14610192575b600080fd5b6100a860046100a39036906116db565b6101a9565b005b34156100b557600080fd5b6100ca60046100c5903690611830565b61046e565b6040516100d89291906119ab565b60405180910390f35b6100f660046100f190369061169f565b6104c1565b005b61010d6004610108903690611742565b6106b2565b005b341561011a57600080fd5b61012f600461012a9036906117ef565b610940565b60405161013c91906119d4565b60405180910390f35b341561015057600080fd5b6101656004610160903690611859565b6109ec565b60405161017291906119ef565b60405180910390f35b610190600461018b903690611859565b610a41565b005b6101a760046101a2903690611783565b610ccd565b005b60008060003373ffffffffffffffffffffffffffffffffffffffff1673ffffffffffffffffffffffffffffffffffffffff168152602001908152602001600020600101541415156101f957600080fd5b6000803373ffffffffffffffffffffffffffffffffffffffff1673ffffffffffffffffffffffffffffffffffffffff168152602001908152602001600020600201805480919060010161024c9190610e0b565b50826000803373ffffffffffffffffffffffffffffffffffffffff1673ffffffffffffffffffffffffffffffffffffffff16815260200190815260200160002060020160016000803373ffffffffffffffffffffffffffffffffffffffff1673ffffffffffffffffffffffffffffffffffffffff16815260200190815260200160002060020180549050038154811015156102e357fe5b90600052602060002090600402016000019080519060200190610307929190610e3d565b50816000803373ffffffffffffffffffffffffffffffffffffffff1673ffffffffffffffffffffffffffffffffffffffff16815260200190815260200160002060020160016000803373ffffffffffffffffffffffffffffffffffffffff1673ffffffffffffffffffffffffffffffffffffffff168152602001908152602001600020600201805490500381548110151561039e57fe5b906000526020600020906004020160010181905550806000803373ffffffffffffffffffffffffffffffffffffffff1673ffffffffffffffffffffffffffffffffffffffff16815260200190815260200160002060020160016000803373ffffffffffffffffffffffffffffffffffffffff1673ffffffffffffffffffffffffffffffffffffffff168152602001908152602001600020600201805490500381548110151561044957fe5b9060005260206000209060040201600201906002610468929190610ebd565b50505050565b60018181548110151561047d57fe5b90600052602060002090600302016000915090508060000160009054906101000a900473ffffffffffffffffffffffffffffffffffffffff16908060010154905082565b600260009054906101000a900473ffffffffffffffffffffffffffffffffffffffff1673ffffffffffffffffffffffffffffffffffffffff163373ffffffffffffffffffffffffffffffffffffffff1614151561051d57600080fd5b600180548091906001016105319190610efd565b508160018080805490500381548110151561054857fe5b906000526020600020906003020160000160006101000a81548173ffffffffffffffffffffffffffffffffffffffff021916908373ffffffffffffffffffffffffffffffffffffffff160217905550806001808080549050038154811015156105ad57fe5b9060005260206000209060030201600101819055506001808080549050038154811015156105d757fe5b90600052602060002090600302016000808473ffffffffffffffffffffffffffffffffffffffff1673ffffffffffffffffffffffffffffffffffffffff1681526020019081526020016000206000820160009054906101000a900473ffffffffffffffffffffffffffffffffffffffff168160000160006101000a81548173ffffffffffffffffffffffffffffffffffffffff021916908373ffffffffffffffffffffffffffffffffffffffff1602179055506001820154816001015560028201816002019080546106aa929190610f2f565b509050505050565b600080600091505b6000803373ffffffffffffffffffffffffffffffffffffffff1673ffffffffffffffffffffffffffffffffffffffff1681526020019081526020016000206002018054905082101561093b5782602001516000803373ffffffffffffffffffffffffffffffffffffffff1673ffffffffffffffffffffffffffffffffffffffff1681526020019081526020016000206002018381548110151561075957fe5b906000526020600020906004020160010154141561092e576001820190505b6000803373ffffffffffffffffffffffffffffffffffffffff1673ffffffffffffffffffffffffffffffffffffffff168152602001908152602001600020600201805490508110156108d8576000803373ffffffffffffffffffffffffffffffffffffffff1673ffffffffffffffffffffffffffffffffffffffff1681526020019081526020016000206002018181548110151561081257fe5b90600052602060002090600402016000803373ffffffffffffffffffffffffffffffffffffffff1673ffffffffffffffffffffffffffffffffffffffff1681526020019081526020016000206002016001830381548110151561087157fe5b9060005260206000209060040201600082018160000190805460018160011615610100020316600290046108a6929190610fd0565b506001820154816001015560028201816002019060026108c7929190611057565b509050508080600101915050610778565b6000803373ffffffffffffffffffffffffffffffffffffffff1673ffffffffffffffffffffffffffffffffffffffff16815260200190815260200160002060020180548091906001900361092c9190610e0b565b505b81806001019250506106ba565b505050565b6000816000015173ffffffffffffffffffffffffffffffffffffffff163373ffffffffffffffffffffffffffffffffffffffff16141561098357600190506109e7565b600260009054906101000a900473ffffffffffffffffffffffffffffffffffffffff1673ffffffffffffffffffffffffffffffffffffffff163373ffffffffffffffffffffffffffffffffffffffff1614156109e257600190506109e7565b600090505b919050565b6109f4611094565b816109fe81610940565b1515610a0957600080fd5b83836040015151111515610a1c57600080fd5b826040015184815181101515610a2e57fe5b9060200190602002015191505092915050565b600081610a4d81610940565b1515610a5857600080fd5b600091505b826040015151821015610cc75783836040015183815181101515610a7d57fe5b90602001906020020151602001511415610cba57610c95836040015183815181101515610aa657fe5b90602001906020020151600180866020015101815481101515610ac557fe5b9060005260206000209060030201606060405190810160405290816000820160009054906101000a900473ffffffffffffffffffffffffffffffffffffffff1673ffffffffffffffffffffffffffffffffffffffff1673ffffffffffffffffffffffffffffffffffffffff1681526020016001820154815260200160028201805480602002602001604051908101604052809291908181526020016000905b82821015610c88578382906000526020600020906004020160606040519081016040529081600082018054600181600116156101000203166002900480601f016020809104026020016040519081016040528092919081815260200182805460018160011615610100020316600290048015610c215780601f10610bf657610100808354040283529160200191610c21565b820191906000526020600020905b815481529060010190602001808311610c0457829003601f168201915b505050505081526020016001820154815260200160028201600280602002604051908101604052809291908260028015610c70576020028201915b815481526020019060010190808311610c5c575b50505050508152505081526020019060010190610b64565b5050505081525050610ccd565b610cb9836040015183815181101515610caa57fe5b906020019060200201516106b2565b5b8180600101925050610a5d565b50505050565b6000803373ffffffffffffffffffffffffffffffffffffffff1673ffffffffffffffffffffffffffffffffffffffff1681526020019081526020016000206002018054809190600101610d209190610e0b565b50816000803373ffffffffffffffffffffffffffffffffffffffff1673ffffffffffffffffffffffffffffffffffffffff16815260200190815260200160002060020160016000803373ffffffffffffffffffffffffffffffffffffffff1673ffffffffffffffffffffffffffffffffffffffff1681526020019081526020016000206002018054905003815481101515610db757fe5b90600052602060002090600402016000820151816000019080519060200190610de19291906110c2565b5060208201518160010155604082015181600201906002610e03929190611142565b509050505050565b815481835581811511610e3857600402816004028360005260206000209182019101610e379190611182565b5b505050565b828054600181600116156101000203166002900490600052602060002090601f016020900481019282601f10610e7e57805160ff1916838001178555610eac565b82800160010185558215610eac579182015b82811115610eab578251825591602001919060010190610e90565b5b509050610eb991906111c9565b5090565b8260028101928215610eec579160200282015b82811115610eeb578251825591602001919060010190610ed0565b5b509050610ef991906111c9565b5090565b815481835581811511610f2a57600302816003028360005260206000209182019101610f2991906111ee565b5b505050565b828054828255906000526020600020906004028101928215610fbf5760005260206000209160040282015b82811115610fbe57828260008201816000019080546001816001161561010002031660029004610f8b929190610fd0565b50600182015481600101556002820181600201906002610fac929190611057565b50505091600401919060040190610f5a565b5b509050610fcc9190611182565b5090565b828054600181600116156101000203166002900490600052602060002090601f016020900481019282601f106110095780548555611046565b8280016001018555821561104657600052602060002091601f016020900482015b8281111561104557825482559160010191906001019061102a565b5b50905061105391906111c9565b5090565b8260028101928215611083579182015b82811115611082578254825591600101919060010190611067565b5b50905061109091906111c9565b5090565b6080604051908101604052806110a861124c565b8152602001600081526020016110bc611260565b81525090565b828054600181600116156101000203166002900490600052602060002090601f016020900481019282601f1061110357805160ff1916838001178555611131565b82800160010185558215611131579182015b82811115611130578251825591602001919060010190611115565b5b50905061113e91906111c9565b5090565b8260028101928215611171579160200282015b82811115611170578251825591602001919060010190611155565b5b50905061117e91906111c9565b5090565b6111c691905b808211156111c257600080820160006111a19190611287565b60018201600090556002820160006111b991906112cf565b50600401611188565b5090565b90565b6111eb91905b808211156111e75760008160009055506001016111cf565b5090565b90565b61124991905b8082111561124557600080820160006101000a81549073ffffffffffffffffffffffffffffffffffffffff0219169055600182016000905560028201600061123c91906112dd565b506003016111f4565b5090565b90565b602060405190810160405280600081525090565b60408051908101604052806002905b600081526020019060019003908161126f5790505090565b50805460018160011615610100020316600290046000825580601f106112ad57506112cc565b601f0160209004906000526020600020908101906112cb91906111c9565b5b50565b506000815560010160009055565b50805460008255600402906000526020600020908101906112fe9190611182565b50565b600061130d8235611b65565b905092915050565b600082601f830112151561132857600080fd5b813561133b61133682611a3e565b611a11565b9150818183526020840193506020810190508360005b8381101561138157813586016113678882611523565b845260208401935060208301925050600181019050611351565b5050505092915050565b600082601f830112151561139e57600080fd5b60026113b16113ac82611a66565b611a11565b915081838560208402820111156113c757600080fd5b60005b838110156113f757816113dd888261168b565b8452602084019350602083019250506001810190506113ca565b5050505092915050565b600082601f830112151561141457600080fd5b600261142761142282611a88565b611a11565b9150818385602084028201111561143d57600080fd5b60005b8381101561146d5781611453888261168b565b845260208401935060208301925050600181019050611440565b5050505092915050565b600082601f830112151561148a57600080fd5b813561149d61149882611aaa565b611a11565b915080825260208301602083018583830111156114b957600080fd5b6114c4838284611b8f565b50505092915050565b600082601f83011215156114e057600080fd5b81356114f36114ee82611ad6565b611a11565b9150808252602083016020830185838301111561150f57600080fd5b61151a838284611b8f565b50505092915050565b60006080828403121561153557600080fd5b61153f6060611a11565b9050600082013567ffffffffffffffff81111561155b57600080fd5b61156784828501611477565b600083015250602061157b8482850161168b565b602083015250604061158f8482850161138b565b60408301525092915050565b6000608082840312156115ad57600080fd5b6115b76060611a11565b9050600082013567ffffffffffffffff8111156115d357600080fd5b6115df84828501611477565b60008301525060206115f38482850161168b565b60208301525060406116078482850161138b565b60408301525092915050565b60006060828403121561162557600080fd5b61162f6060611a11565b9050600061163f84828501611301565b60008301525060206116538482850161168b565b602083015250604082013567ffffffffffffffff81111561167357600080fd5b61167f84828501611315565b60408301525092915050565b60006116978235611b85565b905092915050565b600080604083850312156116b257600080fd5b60006116c085828601611301565b92505060206116d18582860161168b565b9150509250929050565b6000806000608084860312156116f057600080fd5b600084013567ffffffffffffffff81111561170a57600080fd5b611716868287016114cd565b93505060206117278682870161168b565b925050604061173886828701611401565b9150509250925092565b60006020828403121561175457600080fd5b600082013567ffffffffffffffff81111561176e57600080fd5b61177a8482850161159b565b91505092915050565b6000806040838503121561179657600080fd5b600083013567ffffffffffffffff8111156117b057600080fd5b6117bc8582860161159b565b925050602083013567ffffffffffffffff8111156117d957600080fd5b6117e585828601611613565b9150509250929050565b60006020828403121561180157600080fd5b600082013567ffffffffffffffff81111561181b57600080fd5b61182784828501611613565b91505092915050565b60006020828403121561184257600080fd5b60006118508482850161168b565b91505092915050565b6000806040838503121561186c57600080fd5b600061187a8582860161168b565b925050602083013567ffffffffffffffff81111561189757600080fd5b6118a385828601611613565b9150509250929050565b6118b681611b2f565b82525050565b6118c581611b0c565b6118ce82611b02565b60005b82811015611900576118e485835161199c565b6118ed82611b22565b91506020850194506001810190506118d1565b5050505050565b61191081611b4f565b82525050565b600061192182611b17565b808452611935816020860160208601611b9e565b61193e81611bd1565b602085010191505092915050565b600060808301600083015184820360008601526119698282611916565b915050602083015161197e602086018261199c565b50604083015161199160408601826118bc565b508091505092915050565b6119a581611b5b565b82525050565b60006040820190506119c060008301856118ad565b6119cd602083018461199c565b9392505050565b60006020820190506119e96000830184611907565b92915050565b60006020820190508181036000830152611a09818461194c565b905092915050565b6000604051905081810181811067ffffffffffffffff82111715611a3457600080fd5b8060405250919050565b600067ffffffffffffffff821115611a5557600080fd5b602082029050602081019050919050565b600067ffffffffffffffff821115611a7d57600080fd5b602082029050919050565b600067ffffffffffffffff821115611a9f57600080fd5b602082029050919050565b600067ffffffffffffffff821115611ac157600080fd5b601f19601f8301169050602081019050919050565b600067ffffffffffffffff821115611aed57600080fd5b601f19601f8301169050602081019050919050565b6000819050919050565b600060029050919050565b600081519050919050565b6000602082019050919050565b600073ffffffffffffffffffffffffffffffffffffffff82169050919050565b60008115159050919050565b6000819050919050565b600073ffffffffffffffffffffffffffffffffffffffff82169050919050565b6000819050919050565b82818337600083830152505050565b60005b83811015611bbc578082015181840152602081019050611ba1565b83811115611bcb576000848401525b50505050565b6000601f19601f83011690509190505600a265627a7a723058206f5c3a2e99cff4532aff03aa790aaa1d8103de382ca0204b5b152228e40d30ea6c6578706572696d656e74616cf50037",
  "source": "pragma solidity ^0.4.21;\npragma experimental ABIEncoderV2;\n\ncontract SupplyChain {\n\n    struct SupplyChainNode {\n        address addr;\n        uint    nodeId;\n        Item[]  inventory;\n    }\n    struct Item {\n        string  itemType;\n        uint    itemId;\n        uint[2] puf; //One integer to hold the PUF value with the decimal point removed\n                     //a second to hold the index of the decimal point\n    }\n\n    mapping (address => SupplyChainNode) nodeOf;\n\n    SupplyChainNode[] public chain;\n    address                  admin;\n\n    modifier onlyAdmin()\n    { require(msg.sender == admin);\n      _;\n    }\n\n    modifier onlyOrigin()\n    { require(nodeOf[msg.sender].nodeId == 0);\n      _;\n    }\n\n    function isSelfOrAdmin(SupplyChainNode a) public returns (bool) {\n        if (msg.sender == a.addr) { return true; }\n        else if (msg.sender == admin) { return true; }\n        return false;\n    }\n\n    modifier onlyThis(SupplyChainNode a)\n    { require(isSelfOrAdmin(a));\n      _;\n    }\n\n    function SupplyChain() public payable {\n        admin = msg.sender;\n    }\n\n    function register(address a, uint id) public payable onlyAdmin {\n        chain.length++;\n        chain[chain.length-1].addr      = a;\n        chain[chain.length-1].nodeId    = id;\n        nodeOf[a] = chain[chain.length-1];\n    }\n\n    function createItem(string i, uint id, uint[2] p) public payable onlyOrigin {\n        nodeOf[msg.sender].inventory.length++;\n        nodeOf[msg.sender].inventory[nodeOf[msg.sender].inventory.length-1].itemType = i;\n        nodeOf[msg.sender].inventory[nodeOf[msg.sender].inventory.length-1].itemId   = id;\n        nodeOf[msg.sender].inventory[nodeOf[msg.sender].inventory.length-1].puf      = p;\n\n    }\n\n    function getInventory(uint a, SupplyChainNode s) public onlyThis(s) returns (Item) {\n        if (s.inventory.length <= a) { revert(); }\n        return s.inventory[a];\n    }\n\n    function addItem(Item a, SupplyChainNode s) public payable {\n        nodeOf[msg.sender].inventory.length++;\n        nodeOf[msg.sender].inventory[nodeOf[msg.sender].inventory.length-1] = a;\n    }\n\n    function removeItem(Item a) public payable {\n        for(uint i = 0; i < nodeOf[msg.sender].inventory.length; i++) {\n            if(nodeOf[msg.sender].inventory[i].itemId == a.itemId) {\n                for(uint j = i+1; j < nodeOf[msg.sender].inventory.length; j++) {\n                    nodeOf[msg.sender].inventory[j-1]=nodeOf[msg.sender].inventory[j];\n                }\n                nodeOf[msg.sender].inventory.length--;\n            }\n        }\n    }\n\n    function passItem(uint Iid, SupplyChainNode s) public onlyThis(s) payable {\n        for(uint i = 0; i < s.inventory.length; i++) {\n            if(s.inventory[i].itemId == Iid) {\n                addItem(s.inventory[i], chain[(s.nodeId)+1]);\n                removeItem(s.inventory[i]);\n            }\n        }\n    }\n\n}\n",
  "sourcePath": "/Users/allenwilliams/Desktop/SCBC_Real/contracts/SupplyChain2.sol",
  "compiler": {
    "name": "solc",
    "version": "0.4.21+commit.dfe3193c.Emscripten.clang"
  },
  "schemaVersion": "3.0.23",
  "updatedAt": "2020-03-27T19:07:35.407Z",
  "devdoc": {
    "methods": {}
  },
  "userdoc": {
    "methods": {}
  }
}