{
  "contractName": "SupplyChain2",
  "abi": [
    {
      "constant": true,
      "inputs": [
        {
          "name": "",
          "type": "uint256"
        }
      ],
      "name": "chain",
      "outputs": [
        {
          "name": "addr",
          "type": "address"
        },
        {
          "name": "nodeId",
          "type": "uint256"
        }
      ],
      "payable": false,
      "stateMutability": "view",
      "type": "function"
    },
    {
      "constant": false,
      "inputs": [
        {
          "components": [
            {
              "name": "addr",
              "type": "address"
            },
            {
              "name": "nodeId",
              "type": "uint256"
            },
            {
              "components": [
                {
                  "name": "itemType",
                  "type": "string"
                },
                {
                  "name": "itemId",
                  "type": "uint256"
                },
                {
                  "name": "puf",
                  "type": "uint256[2]"
                }
              ],
              "name": "inventory",
              "type": "tuple[]"
            }
          ],
          "name": "a",
          "type": "tuple"
        }
      ],
      "name": "isSelfOrAdmin",
      "outputs": [
        {
          "name": "",
          "type": "bool"
        }
      ],
      "payable": false,
      "stateMutability": "nonpayable",
      "type": "function"
    },
    {
      "constant": false,
      "inputs": [],
      "name": "SupplyChain",
      "outputs": [],
      "payable": true,
      "stateMutability": "payable",
      "type": "function"
    },
    {
      "constant": false,
      "inputs": [
        {
          "name": "a",
          "type": "address"
        },
        {
          "name": "id",
          "type": "uint256"
        }
      ],
      "name": "register",
      "outputs": [],
      "payable": true,
      "stateMutability": "payable",
      "type": "function"
    },
    {
      "constant": false,
      "inputs": [
        {
          "name": "i",
          "type": "string"
        },
        {
          "name": "id",
          "type": "uint256"
        },
        {
          "name": "p",
          "type": "uint256[2]"
        }
      ],
      "name": "createItem",
      "outputs": [],
      "payable": true,
      "stateMutability": "payable",
      "type": "function"
    },
    {
      "constant": false,
      "inputs": [
        {
          "name": "a",
          "type": "uint256"
        },
        {
          "components": [
            {
              "name": "addr",
              "type": "address"
            },
            {
              "name": "nodeId",
              "type": "uint256"
            },
            {
              "components": [
                {
                  "name": "itemType",
                  "type": "string"
                },
                {
                  "name": "itemId",
                  "type": "uint256"
                },
                {
                  "name": "puf",
                  "type": "uint256[2]"
                }
              ],
              "name": "inventory",
              "type": "tuple[]"
            }
          ],
          "name": "s",
          "type": "tuple"
        }
      ],
      "name": "getInventory",
      "outputs": [
        {
          "components": [
            {
              "name": "itemType",
              "type": "string"
            },
            {
              "name": "itemId",
              "type": "uint256"
            },
            {
              "name": "puf",
              "type": "uint256[2]"
            }
          ],
          "name": "",
          "type": "tuple"
        }
      ],
      "payable": false,
      "stateMutability": "nonpayable",
      "type": "function"
    },
    {
      "constant": false,
      "inputs": [
        {
          "components": [
            {
              "name": "itemType",
              "type": "string"
            },
            {
              "name": "itemId",
              "type": "uint256"
            },
            {
              "name": "puf",
              "type": "uint256[2]"
            }
          ],
          "name": "a",
          "type": "tuple"
        },
        {
          "components": [
            {
              "name": "addr",
              "type": "address"
            },
            {
              "name": "nodeId",
              "type": "uint256"
            },
            {
              "components": [
                {
                  "name": "itemType",
                  "type": "string"
                },
                {
                  "name": "itemId",
                  "type": "uint256"
                },
                {
                  "name": "puf",
                  "type": "uint256[2]"
                }
              ],
              "name": "inventory",
              "type": "tuple[]"
            }
          ],
          "name": "s",
          "type": "tuple"
        }
      ],
      "name": "addItem",
      "outputs": [],
      "payable": true,
      "stateMutability": "payable",
      "type": "function"
    },
    {
      "constant": false,
      "inputs": [
        {
          "components": [
            {
              "name": "itemType",
              "type": "string"
            },
            {
              "name": "itemId",
              "type": "uint256"
            },
            {
              "name": "puf",
              "type": "uint256[2]"
            }
          ],
          "name": "a",
          "type": "tuple"
        }
      ],
      "name": "removeItem",
      "outputs": [],
      "payable": true,
      "stateMutability": "payable",
      "type": "function"
    },
    {
      "constant": false,
      "inputs": [
        {
          "name": "Iid",
          "type": "uint256"
        },
        {
          "components": [
            {
              "name": "addr",
              "type": "address"
            },
            {
              "name": "nodeId",
              "type": "uint256"
            },
            {
              "components": [
                {
                  "name": "itemType",
                  "type": "string"
                },
                {
                  "name": "itemId",
                  "type": "uint256"
                },
                {
                  "name": "puf",
                  "type": "uint256[2]"
                }
              ],
              "name": "inventory",
              "type": "tuple[]"
            }
          ],
          "name": "s",
          "type": "tuple"
        }
      ],
      "name": "passItem",
      "outputs": [],
      "payable": true,
      "stateMutability": "payable",
      "type": "function"
    }
  ],
  "bytecode": "0x6060604052341561000f57600080fd5b611c748061001e6000396000f300606060405260043610610099576000357c0100000000000000000000000000000000000000000000000000000000900463ffffffff1680633800c6af1461009e57806338047f46146100a85780635852cc0c146100bf5780636d705ebb146100f657806371586a601461010d578063a2a1ccf014610124578063ca295a051461015a578063d0b165a014610190578063f029137f146101a7575b600080fd5b6100a66101be565b005b6100bd60046100b8903690611733565b610201565b005b34156100ca57600080fd5b6100df60046100da903690611888565b6104c6565b6040516100ed929190611a03565b60405180910390f35b61010b60046101069036906116f7565b610519565b005b610122600461011d90369061179a565b61070a565b005b341561012f57600080fd5b610144600461013f903690611847565b610998565b6040516101519190611a2c565b60405180910390f35b341561016557600080fd5b61017a60046101759036906118b1565b610a44565b6040516101879190611a47565b60405180910390f35b6101a560046101a09036906118b1565b610a99565b005b6101bc60046101b79036906117db565b610d25565b005b33600260006101000a81548173ffffffffffffffffffffffffffffffffffffffff021916908373ffffffffffffffffffffffffffffffffffffffff160217905550565b60008060003373ffffffffffffffffffffffffffffffffffffffff1673ffffffffffffffffffffffffffffffffffffffff1681526020019081526020016000206001015414151561025157600080fd5b6000803373ffffffffffffffffffffffffffffffffffffffff1673ffffffffffffffffffffffffffffffffffffffff16815260200190815260200160002060020180548091906001016102a49190610e63565b50826000803373ffffffffffffffffffffffffffffffffffffffff1673ffffffffffffffffffffffffffffffffffffffff16815260200190815260200160002060020160016000803373ffffffffffffffffffffffffffffffffffffffff1673ffffffffffffffffffffffffffffffffffffffff168152602001908152602001600020600201805490500381548110151561033b57fe5b9060005260206000209060040201600001908051906020019061035f929190610e95565b50816000803373ffffffffffffffffffffffffffffffffffffffff1673ffffffffffffffffffffffffffffffffffffffff16815260200190815260200160002060020160016000803373ffffffffffffffffffffffffffffffffffffffff1673ffffffffffffffffffffffffffffffffffffffff16815260200190815260200160002060020180549050038154811015156103f657fe5b906000526020600020906004020160010181905550806000803373ffffffffffffffffffffffffffffffffffffffff1673ffffffffffffffffffffffffffffffffffffffff16815260200190815260200160002060020160016000803373ffffffffffffffffffffffffffffffffffffffff1673ffffffffffffffffffffffffffffffffffffffff16815260200190815260200160002060020180549050038154811015156104a157fe5b90600052602060002090600402016002019060026104c0929190610f15565b50505050565b6001818154811015156104d557fe5b90600052602060002090600302016000915090508060000160009054906101000a900473ffffffffffffffffffffffffffffffffffffffff16908060010154905082565b600260009054906101000a900473ffffffffffffffffffffffffffffffffffffffff1673ffffffffffffffffffffffffffffffffffffffff163373ffffffffffffffffffffffffffffffffffffffff1614151561057557600080fd5b600180548091906001016105899190610f55565b50816001808080549050038154811015156105a057fe5b906000526020600020906003020160000160006101000a81548173ffffffffffffffffffffffffffffffffffffffff021916908373ffffffffffffffffffffffffffffffffffffffff1602179055508060018080805490500381548110151561060557fe5b90600052602060002090600302016001018190555060018080805490500381548110151561062f57fe5b90600052602060002090600302016000808473ffffffffffffffffffffffffffffffffffffffff1673ffffffffffffffffffffffffffffffffffffffff1681526020019081526020016000206000820160009054906101000a900473ffffffffffffffffffffffffffffffffffffffff168160000160006101000a81548173ffffffffffffffffffffffffffffffffffffffff021916908373ffffffffffffffffffffffffffffffffffffffff160217905550600182015481600101556002820181600201908054610702929190610f87565b509050505050565b600080600091505b6000803373ffffffffffffffffffffffffffffffffffffffff1673ffffffffffffffffffffffffffffffffffffffff168152602001908152602001600020600201805490508210156109935782602001516000803373ffffffffffffffffffffffffffffffffffffffff1673ffffffffffffffffffffffffffffffffffffffff168152602001908152602001600020600201838154811015156107b157fe5b9060005260206000209060040201600101541415610986576001820190505b6000803373ffffffffffffffffffffffffffffffffffffffff1673ffffffffffffffffffffffffffffffffffffffff16815260200190815260200160002060020180549050811015610930576000803373ffffffffffffffffffffffffffffffffffffffff1673ffffffffffffffffffffffffffffffffffffffff1681526020019081526020016000206002018181548110151561086a57fe5b90600052602060002090600402016000803373ffffffffffffffffffffffffffffffffffffffff1673ffffffffffffffffffffffffffffffffffffffff168152602001908152602001600020600201600183038154811015156108c957fe5b9060005260206000209060040201600082018160000190805460018160011615610100020316600290046108fe929190611028565b5060018201548160010155600282018160020190600261091f9291906110af565b5090505080806001019150506107d0565b6000803373ffffffffffffffffffffffffffffffffffffffff1673ffffffffffffffffffffffffffffffffffffffff1681526020019081526020016000206002018054809190600190036109849190610e63565b505b8180600101925050610712565b505050565b6000816000015173ffffffffffffffffffffffffffffffffffffffff163373ffffffffffffffffffffffffffffffffffffffff1614156109db5760019050610a3f565b600260009054906101000a900473ffffffffffffffffffffffffffffffffffffffff1673ffffffffffffffffffffffffffffffffffffffff163373ffffffffffffffffffffffffffffffffffffffff161415610a3a5760019050610a3f565b600090505b919050565b610a4c6110ec565b81610a5681610998565b1515610a6157600080fd5b83836040015151111515610a7457600080fd5b826040015184815181101515610a8657fe5b9060200190602002015191505092915050565b600081610aa581610998565b1515610ab057600080fd5b600091505b826040015151821015610d1f5783836040015183815181101515610ad557fe5b90602001906020020151602001511415610d1257610ced836040015183815181101515610afe57fe5b90602001906020020151600180866020015101815481101515610b1d57fe5b9060005260206000209060030201606060405190810160405290816000820160009054906101000a900473ffffffffffffffffffffffffffffffffffffffff1673ffffffffffffffffffffffffffffffffffffffff1673ffffffffffffffffffffffffffffffffffffffff1681526020016001820154815260200160028201805480602002602001604051908101604052809291908181526020016000905b82821015610ce0578382906000526020600020906004020160606040519081016040529081600082018054600181600116156101000203166002900480601f016020809104026020016040519081016040528092919081815260200182805460018160011615610100020316600290048015610c795780601f10610c4e57610100808354040283529160200191610c79565b820191906000526020600020905b815481529060010190602001808311610c5c57829003601f168201915b505050505081526020016001820154815260200160028201600280602002604051908101604052809291908260028015610cc8576020028201915b815481526020019060010190808311610cb4575b50505050508152505081526020019060010190610bbc565b5050505081525050610d25565b610d11836040015183815181101515610d0257fe5b9060200190602002015161070a565b5b8180600101925050610ab5565b50505050565b6000803373ffffffffffffffffffffffffffffffffffffffff1673ffffffffffffffffffffffffffffffffffffffff1681526020019081526020016000206002018054809190600101610d789190610e63565b50816000803373ffffffffffffffffffffffffffffffffffffffff1673ffffffffffffffffffffffffffffffffffffffff16815260200190815260200160002060020160016000803373ffffffffffffffffffffffffffffffffffffffff1673ffffffffffffffffffffffffffffffffffffffff1681526020019081526020016000206002018054905003815481101515610e0f57fe5b90600052602060002090600402016000820151816000019080519060200190610e3992919061111a565b5060208201518160010155604082015181600201906002610e5b92919061119a565b509050505050565b815481835581811511610e9057600402816004028360005260206000209182019101610e8f91906111da565b5b505050565b828054600181600116156101000203166002900490600052602060002090601f016020900481019282601f10610ed657805160ff1916838001178555610f04565b82800160010185558215610f04579182015b82811115610f03578251825591602001919060010190610ee8565b5b509050610f119190611221565b5090565b8260028101928215610f44579160200282015b82811115610f43578251825591602001919060010190610f28565b5b509050610f519190611221565b5090565b815481835581811511610f8257600302816003028360005260206000209182019101610f819190611246565b5b505050565b8280548282559060005260206000209060040281019282156110175760005260206000209160040282015b8281111561101657828260008201816000019080546001816001161561010002031660029004610fe3929190611028565b506001820154816001015560028201816002019060026110049291906110af565b50505091600401919060040190610fb2565b5b50905061102491906111da565b5090565b828054600181600116156101000203166002900490600052602060002090601f016020900481019282601f10611061578054855561109e565b8280016001018555821561109e57600052602060002091601f016020900482015b8281111561109d578254825591600101919060010190611082565b5b5090506110ab9190611221565b5090565b82600281019282156110db579182015b828111156110da5782548255916001019190600101906110bf565b5b5090506110e89190611221565b5090565b6080604051908101604052806111006112a4565b8152602001600081526020016111146112b8565b81525090565b828054600181600116156101000203166002900490600052602060002090601f016020900481019282601f1061115b57805160ff1916838001178555611189565b82800160010185558215611189579182015b8281111561118857825182559160200191906001019061116d565b5b5090506111969190611221565b5090565b82600281019282156111c9579160200282015b828111156111c85782518255916020019190600101906111ad565b5b5090506111d69190611221565b5090565b61121e91905b8082111561121a57600080820160006111f991906112df565b60018201600090556002820160006112119190611327565b506004016111e0565b5090565b90565b61124391905b8082111561123f576000816000905550600101611227565b5090565b90565b6112a191905b8082111561129d57600080820160006101000a81549073ffffffffffffffffffffffffffffffffffffffff021916905560018201600090556002820160006112949190611335565b5060030161124c565b5090565b90565b602060405190810160405280600081525090565b60408051908101604052806002905b60008152602001906001900390816112c75790505090565b50805460018160011615610100020316600290046000825580601f106113055750611324565b601f0160209004906000526020600020908101906113239190611221565b5b50565b506000815560010160009055565b508054600082556004029060005260206000209081019061135691906111da565b50565b60006113658235611bbd565b905092915050565b600082601f830112151561138057600080fd5b813561139361138e82611a96565b611a69565b9150818183526020840193506020810190508360005b838110156113d957813586016113bf888261157b565b8452602084019350602083019250506001810190506113a9565b5050505092915050565b600082601f83011215156113f657600080fd5b600261140961140482611abe565b611a69565b9150818385602084028201111561141f57600080fd5b60005b8381101561144f578161143588826116e3565b845260208401935060208301925050600181019050611422565b5050505092915050565b600082601f830112151561146c57600080fd5b600261147f61147a82611ae0565b611a69565b9150818385602084028201111561149557600080fd5b60005b838110156114c557816114ab88826116e3565b845260208401935060208301925050600181019050611498565b5050505092915050565b600082601f83011215156114e257600080fd5b81356114f56114f082611b02565b611a69565b9150808252602083016020830185838301111561151157600080fd5b61151c838284611be7565b50505092915050565b600082601f830112151561153857600080fd5b813561154b61154682611b2e565b611a69565b9150808252602083016020830185838301111561156757600080fd5b611572838284611be7565b50505092915050565b60006080828403121561158d57600080fd5b6115976060611a69565b9050600082013567ffffffffffffffff8111156115b357600080fd5b6115bf848285016114cf565b60008301525060206115d3848285016116e3565b60208301525060406115e7848285016113e3565b60408301525092915050565b60006080828403121561160557600080fd5b61160f6060611a69565b9050600082013567ffffffffffffffff81111561162b57600080fd5b611637848285016114cf565b600083015250602061164b848285016116e3565b602083015250604061165f848285016113e3565b60408301525092915050565b60006060828403121561167d57600080fd5b6116876060611a69565b9050600061169784828501611359565b60008301525060206116ab848285016116e3565b602083015250604082013567ffffffffffffffff8111156116cb57600080fd5b6116d78482850161136d565b60408301525092915050565b60006116ef8235611bdd565b905092915050565b6000806040838503121561170a57600080fd5b600061171885828601611359565b9250506020611729858286016116e3565b9150509250929050565b60008060006080848603121561174857600080fd5b600084013567ffffffffffffffff81111561176257600080fd5b61176e86828701611525565b935050602061177f868287016116e3565b925050604061179086828701611459565b9150509250925092565b6000602082840312156117ac57600080fd5b600082013567ffffffffffffffff8111156117c657600080fd5b6117d2848285016115f3565b91505092915050565b600080604083850312156117ee57600080fd5b600083013567ffffffffffffffff81111561180857600080fd5b611814858286016115f3565b925050602083013567ffffffffffffffff81111561183157600080fd5b61183d8582860161166b565b9150509250929050565b60006020828403121561185957600080fd5b600082013567ffffffffffffffff81111561187357600080fd5b61187f8482850161166b565b91505092915050565b60006020828403121561189a57600080fd5b60006118a8848285016116e3565b91505092915050565b600080604083850312156118c457600080fd5b60006118d2858286016116e3565b925050602083013567ffffffffffffffff8111156118ef57600080fd5b6118fb8582860161166b565b9150509250929050565b61190e81611b87565b82525050565b61191d81611b64565b61192682611b5a565b60005b828110156119585761193c8583516119f4565b61194582611b7a565b9150602085019450600181019050611929565b5050505050565b61196881611ba7565b82525050565b600061197982611b6f565b80845261198d816020860160208601611bf6565b61199681611c29565b602085010191505092915050565b600060808301600083015184820360008601526119c1828261196e565b91505060208301516119d660208601826119f4565b5060408301516119e96040860182611914565b508091505092915050565b6119fd81611bb3565b82525050565b6000604082019050611a186000830185611905565b611a2560208301846119f4565b9392505050565b6000602082019050611a41600083018461195f565b92915050565b60006020820190508181036000830152611a6181846119a4565b905092915050565b6000604051905081810181811067ffffffffffffffff82111715611a8c57600080fd5b8060405250919050565b600067ffffffffffffffff821115611aad57600080fd5b602082029050602081019050919050565b600067ffffffffffffffff821115611ad557600080fd5b602082029050919050565b600067ffffffffffffffff821115611af757600080fd5b602082029050919050565b600067ffffffffffffffff821115611b1957600080fd5b601f19601f8301169050602081019050919050565b600067ffffffffffffffff821115611b4557600080fd5b601f19601f8301169050602081019050919050565b6000819050919050565b600060029050919050565b600081519050919050565b6000602082019050919050565b600073ffffffffffffffffffffffffffffffffffffffff82169050919050565b60008115159050919050565b6000819050919050565b600073ffffffffffffffffffffffffffffffffffffffff82169050919050565b6000819050919050565b82818337600083830152505050565b60005b83811015611c14578082015181840152602081019050611bf9565b83811115611c23576000848401525b50505050565b6000601f19601f83011690509190505600a265627a7a723058206636d8866dd42e1f71fccbb21c7beb6f10d612eb52193d9b18bf93f39cf6bbe66c6578706572696d656e74616cf50037",
  "source": "pragma solidity ^0.4.21;\npragma experimental ABIEncoderV2;\n\ncontract SupplyChain2 {\n\n    struct SupplyChainNode {\n        address addr;\n        uint    nodeId;\n        Item[]  inventory;\n    }\n    struct Item {\n        string  itemType;\n        uint    itemId;\n        uint[2] puf; //One integer to hold the PUF value with the decimal point removed\n                     //a second to hold the index of the decimal point\n    }\n\n    mapping (address => SupplyChainNode) nodeOf;\n\n    SupplyChainNode[] public chain;\n    address                  admin;\n\n    modifier onlyAdmin()\n    { require(msg.sender == admin);\n      _;\n    }\n\n    modifier onlyOrigin()\n    { require(nodeOf[msg.sender].nodeId == 0);\n      _;\n    }\n\n    function isSelfOrAdmin(SupplyChainNode a) public returns (bool) {\n        if (msg.sender == a.addr) { return true; }\n        else if (msg.sender == admin) { return true; }\n        return false;\n    }\n\n    modifier onlyThis(SupplyChainNode a)\n    { require(isSelfOrAdmin(a));\n      _;\n    }\n\n    function SupplyChain() public payable {\n        admin = msg.sender;\n    }\n\n    function register(address a, uint id) public payable onlyAdmin {\n        chain.length++;\n        chain[chain.length-1].addr      = a;\n        chain[chain.length-1].nodeId    = id;\n        nodeOf[a] = chain[chain.length-1];\n    }\n\n    function createItem(string i, uint id, uint[2] p) public payable onlyOrigin {\n        nodeOf[msg.sender].inventory.length++;\n        nodeOf[msg.sender].inventory[nodeOf[msg.sender].inventory.length-1].itemType = i;\n        nodeOf[msg.sender].inventory[nodeOf[msg.sender].inventory.length-1].itemId   = id;\n        nodeOf[msg.sender].inventory[nodeOf[msg.sender].inventory.length-1].puf      = p;\n\n    }\n\n    function getInventory(uint a, SupplyChainNode s) public onlyThis(s) returns (Item) {\n        if (s.inventory.length <= a) { revert(); }\n        return s.inventory[a];\n    }\n\n    function addItem(Item a, SupplyChainNode s) public payable {\n        nodeOf[msg.sender].inventory.length++;\n        nodeOf[msg.sender].inventory[nodeOf[msg.sender].inventory.length-1] = a;\n    }\n\n    function removeItem(Item a) public payable {\n        for(uint i = 0; i < nodeOf[msg.sender].inventory.length; i++) {\n            if(nodeOf[msg.sender].inventory[i].itemId == a.itemId) {\n                for(uint j = i+1; j < nodeOf[msg.sender].inventory.length; j++) {\n                    nodeOf[msg.sender].inventory[j-1]=nodeOf[msg.sender].inventory[j];\n                }\n                nodeOf[msg.sender].inventory.length--;\n            }\n        }\n    }\n\n    function passItem(uint Iid, SupplyChainNode s) public onlyThis(s) payable {\n        for(uint i = 0; i < s.inventory.length; i++) {\n            if(s.inventory[i].itemId == Iid) {\n                addItem(s.inventory[i], chain[(s.nodeId)+1]);\n                removeItem(s.inventory[i]);\n            }\n        }\n    }\n\n}\n",
  "sourcePath": "/Users/allenwilliams/Desktop/SCBC_Real/contracts/SupplyChain2.sol",
  "compiler": {
    "name": "solc",
    "version": "0.4.21+commit.dfe3193c.Emscripten.clang"
  },
  "schemaVersion": "3.0.23",
  "updatedAt": "2020-03-29T22:10:41.647Z",
  "networkType": "ethereum",
  "devdoc": {
    "methods": {}
  },
  "userdoc": {
    "methods": {}
  }
}