{
  "contractName": "SupplyChain2",
  "abi": [
    {
      "constant": true,
      "inputs": [
        {
          "name": "",
          "type": "uint256"
        }
      ],
      "name": "chain",
      "outputs": [
        {
          "name": "addr",
          "type": "address"
        },
        {
          "name": "nodeId",
          "type": "uint256"
        }
      ],
      "payable": false,
      "stateMutability": "view",
      "type": "function"
    },
    {
      "constant": false,
      "inputs": [
        {
          "components": [
            {
              "name": "addr",
              "type": "address"
            },
            {
              "name": "nodeId",
              "type": "uint256"
            },
            {
              "components": [
                {
                  "name": "itemType",
                  "type": "string"
                },
                {
                  "name": "itemId",
                  "type": "uint256"
                },
                {
                  "name": "puf",
                  "type": "uint256[2]"
                }
              ],
              "name": "inventory",
              "type": "tuple[]"
            }
          ],
          "name": "a",
          "type": "tuple"
        }
      ],
      "name": "isSelfOrAdmin",
      "outputs": [
        {
          "name": "",
          "type": "bool"
        }
      ],
      "payable": false,
      "stateMutability": "nonpayable",
      "type": "function"
    },
    {
      "constant": false,
      "inputs": [],
      "name": "SupplyChain",
      "outputs": [],
      "payable": true,
      "stateMutability": "payable",
      "type": "function"
    },
    {
      "constant": false,
      "inputs": [
        {
          "name": "a",
          "type": "address"
        },
        {
          "name": "id",
          "type": "uint256"
        }
      ],
      "name": "register",
      "outputs": [],
      "payable": true,
      "stateMutability": "payable",
      "type": "function"
    },
    {
      "constant": false,
      "inputs": [
        {
          "name": "i",
          "type": "string"
        },
        {
          "name": "id",
          "type": "uint256"
        },
        {
          "name": "p",
          "type": "uint256[2]"
        }
      ],
      "name": "createItem",
      "outputs": [],
      "payable": true,
      "stateMutability": "payable",
      "type": "function"
    },
    {
      "constant": false,
      "inputs": [
        {
          "name": "a",
          "type": "uint256"
        },
        {
          "components": [
            {
              "name": "addr",
              "type": "address"
            },
            {
              "name": "nodeId",
              "type": "uint256"
            },
            {
              "components": [
                {
                  "name": "itemType",
                  "type": "string"
                },
                {
                  "name": "itemId",
                  "type": "uint256"
                },
                {
                  "name": "puf",
                  "type": "uint256[2]"
                }
              ],
              "name": "inventory",
              "type": "tuple[]"
            }
          ],
          "name": "s",
          "type": "tuple"
        }
      ],
      "name": "getInventory",
      "outputs": [
        {
          "components": [
            {
              "name": "itemType",
              "type": "string"
            },
            {
              "name": "itemId",
              "type": "uint256"
            },
            {
              "name": "puf",
              "type": "uint256[2]"
            }
          ],
          "name": "",
          "type": "tuple"
        }
      ],
      "payable": false,
      "stateMutability": "nonpayable",
      "type": "function"
    },
    {
      "constant": false,
      "inputs": [
        {
          "components": [
            {
              "name": "itemType",
              "type": "string"
            },
            {
              "name": "itemId",
              "type": "uint256"
            },
            {
              "name": "puf",
              "type": "uint256[2]"
            }
          ],
          "name": "a",
          "type": "tuple"
        },
        {
          "components": [
            {
              "name": "addr",
              "type": "address"
            },
            {
              "name": "nodeId",
              "type": "uint256"
            },
            {
              "components": [
                {
                  "name": "itemType",
                  "type": "string"
                },
                {
                  "name": "itemId",
                  "type": "uint256"
                },
                {
                  "name": "puf",
                  "type": "uint256[2]"
                }
              ],
              "name": "inventory",
              "type": "tuple[]"
            }
          ],
          "name": "s",
          "type": "tuple"
        }
      ],
      "name": "addItem",
      "outputs": [],
      "payable": true,
      "stateMutability": "payable",
      "type": "function"
    },
    {
      "constant": false,
      "inputs": [
        {
          "components": [
            {
              "name": "itemType",
              "type": "string"
            },
            {
              "name": "itemId",
              "type": "uint256"
            },
            {
              "name": "puf",
              "type": "uint256[2]"
            }
          ],
          "name": "a",
          "type": "tuple"
        }
      ],
      "name": "removeItem",
      "outputs": [],
      "payable": true,
      "stateMutability": "payable",
      "type": "function"
    },
    {
      "constant": false,
      "inputs": [
        {
          "name": "Iid",
          "type": "uint256"
        },
        {
          "components": [
            {
              "name": "addr",
              "type": "address"
            },
            {
              "name": "nodeId",
              "type": "uint256"
            },
            {
              "components": [
                {
                  "name": "itemType",
                  "type": "string"
                },
                {
                  "name": "itemId",
                  "type": "uint256"
                },
                {
                  "name": "puf",
                  "type": "uint256[2]"
                }
              ],
              "name": "inventory",
              "type": "tuple[]"
            }
          ],
          "name": "s",
          "type": "tuple"
        }
      ],
      "name": "passItem",
      "outputs": [],
      "payable": true,
      "stateMutability": "payable",
      "type": "function"
    }
  ],
  "bytecode": "0x608060405234801561001057600080fd5b50611ca3806100206000396000f3fe6080604052600436106100865760003560e01c806371586a601161005957806371586a601461010b578063a2a1ccf014610127578063ca295a0514610164578063d0b165a0146101a1578063f029137f146101bd57610086565b80633800c6af1461008b57806338047f46146100955780635852cc0c146100b15780636d705ebb146100ef575b600080fd5b6100936101d9565b005b6100af60048036036100aa91908101906116f1565b61021c565b005b3480156100bd57600080fd5b506100d860048036036100d39190810190611846565b6104d9565b6040516100e69291906119f7565b60405180910390f35b610109600480360361010491908101906116b5565b61052a565b005b61012560048036036101209190810190611758565b610713565b005b34801561013357600080fd5b5061014e60048036036101499190810190611805565b61099b565b60405161015b9190611a20565b60405180910390f35b34801561017057600080fd5b5061018b6004803603610186919081019061186f565b610a47565b6040516101989190611a3b565b60405180910390f35b6101bb60048036036101b6919081019061186f565b610a94565b005b6101d760048036036101d29190810190611799565b610d0d565b005b33600260006101000a81548173ffffffffffffffffffffffffffffffffffffffff021916908373ffffffffffffffffffffffffffffffffffffffff160217905550565b60008060003373ffffffffffffffffffffffffffffffffffffffff1673ffffffffffffffffffffffffffffffffffffffff168152602001908152602001600020600101541461026a57600080fd5b6000803373ffffffffffffffffffffffffffffffffffffffff1673ffffffffffffffffffffffffffffffffffffffff16815260200190815260200160002060020180548091906001016102bd9190610e49565b50826000803373ffffffffffffffffffffffffffffffffffffffff1673ffffffffffffffffffffffffffffffffffffffff16815260200190815260200160002060020160016000803373ffffffffffffffffffffffffffffffffffffffff1673ffffffffffffffffffffffffffffffffffffffff16815260200190815260200160002060020180549050038154811061035257fe5b90600052602060002090600402016000019080519060200190610376929190610e7b565b50816000803373ffffffffffffffffffffffffffffffffffffffff1673ffffffffffffffffffffffffffffffffffffffff16815260200190815260200160002060020160016000803373ffffffffffffffffffffffffffffffffffffffff1673ffffffffffffffffffffffffffffffffffffffff16815260200190815260200160002060020180549050038154811061040b57fe5b906000526020600020906004020160010181905550806000803373ffffffffffffffffffffffffffffffffffffffff1673ffffffffffffffffffffffffffffffffffffffff16815260200190815260200160002060020160016000803373ffffffffffffffffffffffffffffffffffffffff1673ffffffffffffffffffffffffffffffffffffffff1681526020019081526020016000206002018054905003815481106104b457fe5b90600052602060002090600402016002019060026104d3929190610efb565b50505050565b600181815481106104e657fe5b90600052602060002090600302016000915090508060000160009054906101000a900473ffffffffffffffffffffffffffffffffffffffff16908060010154905082565b600260009054906101000a900473ffffffffffffffffffffffffffffffffffffffff1673ffffffffffffffffffffffffffffffffffffffff163373ffffffffffffffffffffffffffffffffffffffff161461058457600080fd5b600180548091906001016105989190610f3b565b5081600180808054905003815481106105ad57fe5b906000526020600020906003020160000160006101000a81548173ffffffffffffffffffffffffffffffffffffffff021916908373ffffffffffffffffffffffffffffffffffffffff160217905550806001808080549050038154811061061057fe5b9060005260206000209060030201600101819055506001808080549050038154811061063857fe5b90600052602060002090600302016000808473ffffffffffffffffffffffffffffffffffffffff1673ffffffffffffffffffffffffffffffffffffffff1681526020019081526020016000206000820160009054906101000a900473ffffffffffffffffffffffffffffffffffffffff168160000160006101000a81548173ffffffffffffffffffffffffffffffffffffffff021916908373ffffffffffffffffffffffffffffffffffffffff16021790555060018201548160010155600282018160020190805461070b929190610f6d565b509050505050565b60008090505b6000803373ffffffffffffffffffffffffffffffffffffffff1673ffffffffffffffffffffffffffffffffffffffff168152602001908152602001600020600201805490508110156109975781602001516000803373ffffffffffffffffffffffffffffffffffffffff1673ffffffffffffffffffffffffffffffffffffffff16815260200190815260200160002060020182815481106107b657fe5b906000526020600020906004020160010154141561098a5760006001820190505b6000803373ffffffffffffffffffffffffffffffffffffffff1673ffffffffffffffffffffffffffffffffffffffff16815260200190815260200160002060020180549050811015610933576000803373ffffffffffffffffffffffffffffffffffffffff1673ffffffffffffffffffffffffffffffffffffffff168152602001908152602001600020600201818154811061086f57fe5b90600052602060002090600402016000803373ffffffffffffffffffffffffffffffffffffffff1673ffffffffffffffffffffffffffffffffffffffff16815260200190815260200160002060020160018303815481106108cc57fe5b90600052602060002090600402016000820181600001908054600181600116156101000203166002900461090192919061100e565b50600182015481600101556002820181600201906002610922929190611095565b5090505080806001019150506107d7565b506000803373ffffffffffffffffffffffffffffffffffffffff1673ffffffffffffffffffffffffffffffffffffffff1681526020019081526020016000206002018054809190600190036109889190610e49565b505b8080600101915050610719565b5050565b6000816000015173ffffffffffffffffffffffffffffffffffffffff163373ffffffffffffffffffffffffffffffffffffffff1614156109de5760019050610a42565b600260009054906101000a900473ffffffffffffffffffffffffffffffffffffffff1673ffffffffffffffffffffffffffffffffffffffff163373ffffffffffffffffffffffffffffffffffffffff161415610a3d5760019050610a42565b600090505b919050565b610a4f6110d2565b81610a598161099b565b610a6257600080fd5b8383604001515111610a7357600080fd5b82604001518481518110610a8357fe5b602002602001015191505092915050565b80610a9e8161099b565b610aa757600080fd5b60008090505b826040015151811015610d07578383604001518281518110610acb57fe5b6020026020010151602001511415610cfa57610cd983604001518281518110610af057fe5b602002602001015160018086602001510181548110610b0b57fe5b90600052602060002090600302016040518060600160405290816000820160009054906101000a900473ffffffffffffffffffffffffffffffffffffffff1673ffffffffffffffffffffffffffffffffffffffff1673ffffffffffffffffffffffffffffffffffffffff1681526020016001820154815260200160028201805480602002602001604051908101604052809291908181526020016000905b82821015610ccc5783829060005260206000209060040201604051806060016040529081600082018054600181600116156101000203166002900480601f016020809104026020016040519081016040528092919081815260200182805460018160011615610100020316600290048015610c655780601f10610c3a57610100808354040283529160200191610c65565b820191906000526020600020905b815481529060010190602001808311610c4857829003601f168201915b505050505081526020016001820154815260200160028201600280602002604051908101604052809291908260028015610cb4576020028201915b815481526020019060010190808311610ca0575b50505050508152505081526020019060010190610ba9565b5050505081525050610d0d565b610cf983604001518281518110610cec57fe5b6020026020010151610713565b5b8080600101915050610aad565b50505050565b6000803373ffffffffffffffffffffffffffffffffffffffff1673ffffffffffffffffffffffffffffffffffffffff1681526020019081526020016000206002018054809190600101610d609190610e49565b50816000803373ffffffffffffffffffffffffffffffffffffffff1673ffffffffffffffffffffffffffffffffffffffff16815260200190815260200160002060020160016000803373ffffffffffffffffffffffffffffffffffffffff1673ffffffffffffffffffffffffffffffffffffffff168152602001908152602001600020600201805490500381548110610df557fe5b90600052602060002090600402016000820151816000019080519060200190610e1f9291906110f9565b5060208201518160010155604082015181600201906002610e41929190611179565b509050505050565b815481835581811115610e7657600402816004028360005260206000209182019101610e7591906111b9565b5b505050565b828054600181600116156101000203166002900490600052602060002090601f016020900481019282601f10610ebc57805160ff1916838001178555610eea565b82800160010185558215610eea579182015b82811115610ee9578251825591602001919060010190610ece565b5b509050610ef79190611200565b5090565b8260028101928215610f2a579160200282015b82811115610f29578251825591602001919060010190610f0e565b5b509050610f379190611200565b5090565b815481835581811115610f6857600302816003028360005260206000209182019101610f679190611225565b5b505050565b828054828255906000526020600020906004028101928215610ffd5760005260206000209160040282015b82811115610ffc57828260008201816000019080546001816001161561010002031660029004610fc992919061100e565b50600182015481600101556002820181600201906002610fea929190611095565b50505091600401919060040190610f98565b5b50905061100a91906111b9565b5090565b828054600181600116156101000203166002900490600052602060002090601f016020900481019282601f106110475780548555611084565b8280016001018555821561108457600052602060002091601f016020900482015b82811115611083578254825591600101919060010190611068565b5b5090506110919190611200565b5090565b82600281019282156110c1579182015b828111156110c05782548255916001019190600101906110a5565b5b5090506110ce9190611200565b5090565b604051806080016040528060608152602001600081526020016110f3611283565b81525090565b828054600181600116156101000203166002900490600052602060002090601f016020900481019282601f1061113a57805160ff1916838001178555611168565b82800160010185558215611168579182015b8281111561116757825182559160200191906001019061114c565b5b5090506111759190611200565b5090565b82600281019282156111a8579160200282015b828111156111a757825182559160200191906001019061118c565b5b5090506111b59190611200565b5090565b6111fd91905b808211156111f957600080820160006111d891906112a5565b60018201600090556002820160006111f091906112ed565b506004016111bf565b5090565b90565b61122291905b8082111561121e576000816000905550600101611206565b5090565b90565b61128091905b8082111561127c57600080820160006101000a81549073ffffffffffffffffffffffffffffffffffffffff0219169055600182016000905560028201600061127391906112fb565b5060030161122b565b5090565b90565b6040518060400160405280600290602082028038833980820191505090505090565b50805460018160011615610100020316600290046000825580601f106112cb57506112ea565b601f0160209004906000526020600020908101906112e99190611200565b5b50565b506000815560010160009055565b508054600082556004029060005260206000209081019061131c91906111b9565b50565b60008135905061132e81611c32565b92915050565b600082601f83011261134557600080fd5b813561135861135382611a8a565b611a5d565b9150818183526020840193506020810190508360005b8381101561139e57813586016113848882611538565b84526020840193506020830192505060018101905061136e565b5050505092915050565b600082601f8301126113b957600080fd5b60026113cc6113c782611ab2565b611a5d565b915081838560208402820111156113e257600080fd5b60005b8381101561141257816113f888826116a0565b8452602084019350602083019250506001810190506113e5565b5050505092915050565b600082601f83011261142d57600080fd5b600261144061143b82611ad4565b611a5d565b9150818385602084028201111561145657600080fd5b60005b83811015611486578161146c88826116a0565b845260208401935060208301925050600181019050611459565b5050505092915050565b600082601f8301126114a157600080fd5b81356114b46114af82611af6565b611a5d565b915080825260208301602083018583830111156114d057600080fd5b6114db838284611bdf565b50505092915050565b600082601f8301126114f557600080fd5b813561150861150382611b22565b611a5d565b9150808252602083016020830185838301111561152457600080fd5b61152f838284611bdf565b50505092915050565b60006080828403121561154a57600080fd5b6115546060611a5d565b9050600082013567ffffffffffffffff81111561157057600080fd5b61157c84828501611490565b6000830152506020611590848285016116a0565b60208301525060406115a4848285016113a8565b60408301525092915050565b6000608082840312156115c257600080fd5b6115cc6060611a5d565b9050600082013567ffffffffffffffff8111156115e857600080fd5b6115f484828501611490565b6000830152506020611608848285016116a0565b602083015250604061161c848285016113a8565b60408301525092915050565b60006060828403121561163a57600080fd5b6116446060611a5d565b905060006116548482850161131f565b6000830152506020611668848285016116a0565b602083015250604082013567ffffffffffffffff81111561168857600080fd5b61169484828501611334565b60408301525092915050565b6000813590506116af81611c49565b92915050565b600080604083850312156116c857600080fd5b60006116d68582860161131f565b92505060206116e7858286016116a0565b9150509250929050565b60008060006080848603121561170657600080fd5b600084013567ffffffffffffffff81111561172057600080fd5b61172c868287016114e4565b935050602061173d868287016116a0565b925050604061174e8682870161141c565b9150509250925092565b60006020828403121561176a57600080fd5b600082013567ffffffffffffffff81111561178457600080fd5b611790848285016115b0565b91505092915050565b600080604083850312156117ac57600080fd5b600083013567ffffffffffffffff8111156117c657600080fd5b6117d2858286016115b0565b925050602083013567ffffffffffffffff8111156117ef57600080fd5b6117fb85828601611628565b9150509250929050565b60006020828403121561181757600080fd5b600082013567ffffffffffffffff81111561183157600080fd5b61183d84828501611628565b91505092915050565b60006020828403121561185857600080fd5b6000611866848285016116a0565b91505092915050565b6000806040838503121561188257600080fd5b6000611890858286016116a0565b925050602083013567ffffffffffffffff8111156118ad57600080fd5b6118b985828601611628565b9150509250929050565b60006118cf83836119d9565b60208301905092915050565b6118e481611b97565b82525050565b6118f381611b58565b6118fd8184611b7b565b925061190882611b4e565b8060005b8381101561193957815161192087826118c3565b965061192b83611b6e565b92505060018101905061190c565b505050505050565b61194a81611ba9565b82525050565b600061195b82611b63565b6119658185611b86565b9350611975818560208601611bee565b61197e81611c21565b840191505092915050565b600060808301600083015184820360008601526119a68282611950565b91505060208301516119bb60208601826119d9565b5060408301516119ce60408601826118ea565b508091505092915050565b6119e281611bd5565b82525050565b6119f181611bd5565b82525050565b6000604082019050611a0c60008301856118db565b611a1960208301846119e8565b9392505050565b6000602082019050611a356000830184611941565b92915050565b60006020820190508181036000830152611a558184611989565b905092915050565b6000604051905081810181811067ffffffffffffffff82111715611a8057600080fd5b8060405250919050565b600067ffffffffffffffff821115611aa157600080fd5b602082029050602081019050919050565b600067ffffffffffffffff821115611ac957600080fd5b602082029050919050565b600067ffffffffffffffff821115611aeb57600080fd5b602082029050919050565b600067ffffffffffffffff821115611b0d57600080fd5b601f19601f8301169050602081019050919050565b600067ffffffffffffffff821115611b3957600080fd5b601f19601f8301169050602081019050919050565b6000819050919050565b600060029050919050565b600081519050919050565b6000602082019050919050565b600081905092915050565b600082825260208201905092915050565b6000611ba282611bb5565b9050919050565b60008115159050919050565b600073ffffffffffffffffffffffffffffffffffffffff82169050919050565b6000819050919050565b82818337600083830152505050565b60005b83811015611c0c578082015181840152602081019050611bf1565b83811115611c1b576000848401525b50505050565b6000601f19601f8301169050919050565b611c3b81611b97565b8114611c4657600080fd5b50565b611c5281611bd5565b8114611c5d57600080fd5b5056fea365627a7a723058204451c8b9a79732fe78a04a33daec8a1fa157812c414fcdcfda007aaeef8c8c896c6578706572696d656e74616cf564736f6c634300050a0040",
  "source": "pragma solidity >=0.4.17 <0.7.0;\npragma experimental ABIEncoderV2;\n\nimport \"../../node_modules/@openzeppelin/contracts/token/ERC721/ERC721Full.sol\";\n\ncontract SupplyChain2 {\n\n    struct SupplyChainNode {\n        address addr;\n        uint    nodeId;\n        Item[]  inventory;\n    }\n    struct Item {\n        string  itemType;\n        uint    itemId;\n        uint[2] puf; //One integer to hold the PUF value with the decimal point removed\n                     //a second to hold the index of the decimal point\n    }\n\n    mapping (address => SupplyChainNode) nodeOf;\n\n    SupplyChainNode[] public chain;\n    address                  admin;\n\n    modifier onlyAdmin()\n    { require(msg.sender == admin);\n      _;\n    }\n\n    modifier onlyOrigin()\n    { require(nodeOf[msg.sender].nodeId == 0);\n      _;\n    }\n\n    function isSelfOrAdmin(SupplyChainNode memory a) public returns (bool) {\n        if (msg.sender == a.addr) { return true; }\n        else if (msg.sender == admin) { return true; }\n        return false;\n    }\n\n    modifier onlyThis(SupplyChainNode memory a)\n    { require(isSelfOrAdmin(a));\n      _;\n    }\n\n    function SupplyChain() public payable {\n        admin = msg.sender;\n    }\n\n    function register(address a, uint id) public payable onlyAdmin {\n        chain.length++;\n        chain[chain.length-1].addr      = a;\n        chain[chain.length-1].nodeId    = id;\n        nodeOf[a] = chain[chain.length-1];\n    }\n\n    function createItem(string memory i, uint id, uint[2] memory p) public payable onlyOrigin {\n        nodeOf[msg.sender].inventory.length++;\n        nodeOf[msg.sender].inventory[nodeOf[msg.sender].inventory.length-1].itemType = i;\n        nodeOf[msg.sender].inventory[nodeOf[msg.sender].inventory.length-1].itemId   = id;\n        nodeOf[msg.sender].inventory[nodeOf[msg.sender].inventory.length-1].puf      = p;\n\n    }\n\n    function getInventory(uint a, SupplyChainNode memory s) public onlyThis(s) returns (Item memory) {\n        if (s.inventory.length <= a) { revert(); }\n        return s.inventory[a];\n    }\n\n    function addItem(Item memory a, SupplyChainNode memory s) public payable {\n        nodeOf[msg.sender].inventory.length++;\n        nodeOf[msg.sender].inventory[nodeOf[msg.sender].inventory.length-1] = a;\n    }\n\n    function removeItem(Item memory a) public payable {\n        for(uint i = 0; i < nodeOf[msg.sender].inventory.length; i++) {\n            if(nodeOf[msg.sender].inventory[i].itemId == a.itemId) {\n                for(uint j = i+1; j < nodeOf[msg.sender].inventory.length; j++) {\n                    nodeOf[msg.sender].inventory[j-1]=nodeOf[msg.sender].inventory[j];\n                }\n                nodeOf[msg.sender].inventory.length--;\n            }\n        }\n    }\n\n    function passItem(uint Iid, SupplyChainNode memory s) public onlyThis(s) payable {\n        for(uint i = 0; i < s.inventory.length; i++) {\n            if(s.inventory[i].itemId == Iid) {\n                addItem(s.inventory[i], chain[(s.nodeId)+1]);\n                removeItem(s.inventory[i]);\n            }\n        }\n    }\n\n}\n",
  "sourcePath": "/Users/allenwilliams/Desktop/SCBC/SCBC_Real/contracts/SupplyChain2.sol",
  "compiler": {
    "name": "solc",
    "version": "0.5.10+commit.5a6ea5b1.Emscripten.clang"
  },
  "schemaVersion": "3.0.23",
  "updatedAt": "2020-04-07T23:33:31.166Z",
  "devdoc": {
    "methods": {}
  },
  "userdoc": {
    "methods": {}
  }
}